{
"hash" : "000000000019d6689c085ae165831e934ff763ae46a2a6c172b3f1b60a8ce26f",
"confirmations" : 216946,
"size" : 285,
"height" : 0,
"version" : 1,
"merkleroot" : "4a5e1e4baab89f3a32518a88c31bc87f618f76673e2cc77ab2127b7afdeda33b",
"tx" : [
"4a5e1e4baab89f3a32518a88c31bc87f618f76673e2cc77ab2127b7afdeda33b"
],
"time" : 1231006505,   
;;  (0x495FAB29)				
"nonce" : 2083236893,
;; (0x7C2BAC1D)
"bits" : "1d00ffff",
"difficulty" : 1.00000000,
"nextblockhash" : "00000000839a8e6886ab5951d76f411475428afc90947ee320161bbf18eb6048"
}

;; version
01000000
;; prev hash
0000000000000000000000000000000000000000000000000000000000000000
;; merkle root
3ba3edfd7a7b12b27ac72c3e67768f617fc81bc3888a51323a9fb8aa4b1e5e4a
;; time
29ab5f49
;; bits
ffff001d
;; nonce
11dac2b7c
;; count
01
;; version
01000000
;; vin count
01
;; prev output
0000000000000000000000000000000000000000000000000000000000000000
ffffffff
;; script len
4d
;; coinbase
04ffff001d0104455468652054696d65732030332f4a616e2f32303039204368616e63656c6c6f72206f6e206272696e6b206f66207365636f6e64206261696c6f757420666f722062616e6b73
;; sequence
ffffffff
;; vount count
01
;; amount
00f2052a01000000
;; script len
43
;; script
4104678afdb0fe5548271967f1a67130b7105cd6a828e03909a67962e0ea1f61deb649f6bc3f4cef38c4f35504e51ec112de5c384df7ba0b8d578a4c702b6bf11d5fac
;; locktime
00000000


;; getwork bitcoind
{
"midstate" : "8bc27a567a8fc616b0999fdb312fa3776af82de48df436ee80de06f69a78d6be",
"data" : "000000020c4417e9c0f181a71c9ee723b03b0ee8b4ee462d8050d989b09ce58f00000000a109a1ef232d6f4ae8d1ea7180f8ae82bcf61a1a96c265ceaff20e574c332758518a69791c018c1400000000000000800000000000000000000000000000000000000000000000000000000000000000000000000000000080020000",
"hash1" : "00000000000000000000000000000000000000000000000000000000000000000000008000000000000000000000000000000000000000000000000000010000",
"target" : "00000000000000000000000000000000000000000000000000148c0100000000"
}

;; getwork
'{"midstate":"af72c179c273d0162b2ad944e981ba303bd7cda48233df51f40c08a606aa0a6a","data":
         "000000020c4417e9c0f181a71c9ee723b03b0ee8b4ee462d8050d989b09ce58f00000000d0d715d25b88f0b907e0992144c585512b23c77b7d1d04886cb100cc71246fa3518a69731c018c1400000000000000800000000000000000000000000000000000000000000000000000000000000000000000000000000080020000",
"hash1":"00000000000000000000000000000000000000000000000000000000000000000000008000000000000000000000000000000000000000000000000000010000","target":"00000000000000000000000000000000000000000000000000148c0100000000"}'



02000000
bb0ba05aef54a99c0f4df1a6d1c7ca758acdc24f642726c20d1c080100000000
17e271b9ff03df73456bca00bdae1f1345ab1e30dc35118b8e9fa0a1708d9a8f
25e08d51
ffff001d
4f797567

01

01000000010000000000000000000000000000000000000000000000000000000000000000ffffffff1f03c8190150696e6b20466c6f79642049732054686520576f7273742b000000ffffffff0100f2052a010000001976a9147946ddfd31a651ba2c08e416a34c1dcf60c4858288ac00000000

